{
  "contractName": "Voter",
  "abi": [
    {
      "inputs": [
        {
          "internalType": "uint256",
          "name": "",
          "type": "uint256"
        }
      ],
      "name": "options",
      "outputs": [
        {
          "internalType": "string",
          "name": "",
          "type": "string"
        }
      ],
      "stateMutability": "view",
      "type": "function",
      "constant": true
    },
    {
      "inputs": [
        {
          "internalType": "uint256",
          "name": "",
          "type": "uint256"
        }
      ],
      "name": "votes",
      "outputs": [
        {
          "internalType": "uint256",
          "name": "",
          "type": "uint256"
        }
      ],
      "stateMutability": "view",
      "type": "function",
      "constant": true
    },
    {
      "inputs": [
        {
          "internalType": "string",
          "name": "option",
          "type": "string"
        }
      ],
      "name": "addOption",
      "outputs": [],
      "stateMutability": "nonpayable",
      "type": "function"
    },
    {
      "inputs": [],
      "name": "startVoting",
      "outputs": [],
      "stateMutability": "nonpayable",
      "type": "function"
    },
    {
      "inputs": [
        {
          "internalType": "uint256",
          "name": "option",
          "type": "uint256"
        }
      ],
      "name": "vote",
      "outputs": [],
      "stateMutability": "nonpayable",
      "type": "function"
    },
    {
      "inputs": [
        {
          "internalType": "string",
          "name": "option",
          "type": "string"
        }
      ],
      "name": "vote",
      "outputs": [],
      "stateMutability": "nonpayable",
      "type": "function"
    },
    {
      "inputs": [],
      "name": "getVotes",
      "outputs": [
        {
          "internalType": "uint256[]",
          "name": "",
          "type": "uint256[]"
        }
      ],
      "stateMutability": "view",
      "type": "function",
      "constant": true
    }
  ],
  "bytecode": "0x608060405234801561001057600080fd5b50611026806100206000396000f3fe608060405234801561001057600080fd5b506004361061007d5760003560e01c8063409e22051161005b578063409e2205146100c65780635df81330146100f6578063edc550dc14610126578063fc36e15b146101425761007d565b80630121b93f146100825780630dc960151461009e5780631ec6b60a146100bc575b600080fd5b61009c600480360381019061009791906108f8565b61015e565b005b6100a66102e6565b6040516100b39190610b5c565b60405180910390f35b6100c461033e565b005b6100e060048036038101906100db91906108f8565b610455565b6040516100ed9190610b7e565b60405180910390f35b610110600480360381019061010b91906108f8565b610501565b60405161011d9190610c20565b60405180910390f35b610140600480360381019061013b91906108af565b610525565b005b61015c600480360381019061015791906108af565b6105b4565b005b80600011158015610173575060038054905081105b6101b2576040517f08c379a00000000000000000000000000000000000000000000000000000000081526004016101a990610bc0565b60405180910390fd5b600160003373ffffffffffffffffffffffffffffffffffffffff1673ffffffffffffffffffffffffffffffffffffffff16815260200190815260200160002060009054906101000a900460ff161561023f576040517f08c379a000000000000000000000000000000000000000000000000000000000815260040161023690610ba0565b60405180910390fd5b60018060003373ffffffffffffffffffffffffffffffffffffffff1673ffffffffffffffffffffffffffffffffffffffff16815260200190815260200160002060006101000a81548160ff0219169083151502179055506001600082815481106102ac576102ab610eb2565b5b90600052602060002001546102c19190610d06565b600082815481106102d5576102d4610eb2565b5b906000526020600020018190555050565b6060600080548060200260200160405190810160405280929190818152602001828054801561033457602002820191906000526020600020905b815481526020019060010190808311610320575b5050505050905090565b600460009054906101000a900460ff161561038e576040517f08c379a000000000000000000000000000000000000000000000000000000000815260040161038590610be0565b60405180910390fd5b60005b6003805490508110156104375760006040518060400160405280838152602001600115158152509050806002600384815481106103d1576103d0610eb2565b5b906000526020600020016040516103e89190610b45565b90815260200160405180910390206000820151816000015560208201518160010160006101000a81548160ff02191690831515021790555090505050808061042f90610e0b565b915050610391565b506001600460006101000a81548160ff021916908315150217905550565b6003818154811061046557600080fd5b90600052602060002001600091509050805461048090610da8565b80601f01602080910402602001604051908101604052809291908181526020018280546104ac90610da8565b80156104f95780601f106104ce576101008083540402835291602001916104f9565b820191906000526020600020905b8154815290600101906020018083116104dc57829003601f168201915b505050505081565b6000818154811061051157600080fd5b906000526020600020016000915090505481565b600460009054906101000a900460ff1615610575576040517f08c379a000000000000000000000000000000000000000000000000000000000815260040161056c90610be0565b60405180910390fd5b6003819080600181540180825580915050600190039060005260206000200160009091909190915090805190602001906105b0929190610787565b5050565b600160003373ffffffffffffffffffffffffffffffffffffffff1673ffffffffffffffffffffffffffffffffffffffff16815260200190815260200160002060009054906101000a900460ff1615610641576040517f08c379a000000000000000000000000000000000000000000000000000000000815260040161063890610ba0565b60405180910390fd5b60006002826040516106539190610b2e565b9081526020016040518091039020604051806040016040529081600082015481526020016001820160009054906101000a900460ff161515151581525050905080602001516106d7576040517f08c379a00000000000000000000000000000000000000000000000000000000081526004016106ce90610c00565b60405180910390fd5b60018060003373ffffffffffffffffffffffffffffffffffffffff1673ffffffffffffffffffffffffffffffffffffffff16815260200190815260200160002060006101000a81548160ff0219169083151502179055506001600082600001518154811061074857610747610eb2565b5b906000526020600020015461075d9190610d06565b600082600001518154811061077557610774610eb2565b5b90600052602060002001819055505050565b82805461079390610da8565b90600052602060002090601f0160209004810192826107b557600085556107fc565b82601f106107ce57805160ff19168380011785556107fc565b828001600101855582156107fc579182015b828111156107fb5782518255916020019190600101906107e0565b5b509050610809919061080d565b5090565b5b8082111561082657600081600090555060010161080e565b5090565b600061083d61083884610c60565b610c3b565b90508281526020810184848401111561085957610858610f15565b5b610864848285610d66565b509392505050565b600082601f83011261088157610880610f10565b5b813561089184826020860161082a565b91505092915050565b6000813590506108a981610fd9565b92915050565b6000602082840312156108c5576108c4610f1f565b5b600082013567ffffffffffffffff8111156108e3576108e2610f1a565b5b6108ef8482850161086c565b91505092915050565b60006020828403121561090e5761090d610f1f565b5b600061091c8482850161089a565b91505092915050565b60006109318383610b10565b60208301905092915050565b600061094882610cb6565b6109528185610cd9565b935061095d83610c91565b8060005b8381101561098e5781516109758882610925565b975061098083610ccc565b925050600181019050610961565b5085935050505092915050565b60006109a682610cc1565b6109b08185610cea565b93506109c0818560208601610d75565b6109c981610f24565b840191505092915050565b60006109df82610cc1565b6109e98185610cfb565b93506109f9818560208601610d75565b80840191505092915050565b60008154610a1281610da8565b610a1c8186610cfb565b94506001821660008114610a375760018114610a4857610a7b565b60ff19831686528186019350610a7b565b610a5185610ca1565b60005b83811015610a7357815481890152600182019150602081019050610a54565b838801955050505b50505092915050565b6000610a91601983610cea565b9150610a9c82610f35565b602082019050919050565b6000610ab4600e83610cea565b9150610abf82610f5e565b602082019050919050565b6000610ad7601a83610cea565b9150610ae282610f87565b602082019050919050565b6000610afa601583610cea565b9150610b0582610fb0565b602082019050919050565b610b1981610d5c565b82525050565b610b2881610d5c565b82525050565b6000610b3a82846109d4565b915081905092915050565b6000610b518284610a05565b915081905092915050565b60006020820190508181036000830152610b76818461093d565b905092915050565b60006020820190508181036000830152610b98818461099b565b905092915050565b60006020820190508181036000830152610bb981610a84565b9050919050565b60006020820190508181036000830152610bd981610aa7565b9050919050565b60006020820190508181036000830152610bf981610aca565b9050919050565b60006020820190508181036000830152610c1981610aed565b9050919050565b6000602082019050610c356000830184610b1f565b92915050565b6000610c45610c56565b9050610c518282610dda565b919050565b6000604051905090565b600067ffffffffffffffff821115610c7b57610c7a610ee1565b5b610c8482610f24565b9050602081019050919050565b6000819050602082019050919050565b60008190508160005260206000209050919050565b600081519050919050565b600081519050919050565b6000602082019050919050565b600082825260208201905092915050565b600082825260208201905092915050565b600081905092915050565b6000610d1182610d5c565b9150610d1c83610d5c565b9250827fffffffffffffffffffffffffffffffffffffffffffffffffffffffffffffffff03821115610d5157610d50610e54565b5b828201905092915050565b6000819050919050565b82818337600083830152505050565b60005b83811015610d93578082015181840152602081019050610d78565b83811115610da2576000848401525b50505050565b60006002820490506001821680610dc057607f821691505b60208210811415610dd457610dd3610e83565b5b50919050565b610de382610f24565b810181811067ffffffffffffffff82111715610e0257610e01610ee1565b5b80604052505050565b6000610e1682610d5c565b91507fffffffffffffffffffffffffffffffffffffffffffffffffffffffffffffffff821415610e4957610e48610e54565b5b600182019050919050565b7f4e487b7100000000000000000000000000000000000000000000000000000000600052601160045260246000fd5b7f4e487b7100000000000000000000000000000000000000000000000000000000600052602260045260246000fd5b7f4e487b7100000000000000000000000000000000000000000000000000000000600052603260045260246000fd5b7f4e487b7100000000000000000000000000000000000000000000000000000000600052604160045260246000fd5b600080fd5b600080fd5b600080fd5b600080fd5b6000601f19601f8301169050919050565b7f4163636f756e742068617320616c726561647920766f74656400000000000000600082015250565b7f496e76616c6964206f7074696f6e000000000000000000000000000000000000600082015250565b7f566f74696e672068617320616c72656164792073746172746564000000000000600082015250565b7f4f7074696f6e20646f6573206e6f742065786973740000000000000000000000600082015250565b610fe281610d5c565b8114610fed57600080fd5b5056fea26469706673582212205cf400105dd6287e62fc219ba99a4145657bcfcc6610e3cf54372c4112797d6a64736f6c63430008060033",
  "immutableReferences": {},
  "source": "// SPDX-License-Identifier: GPL-3.0\npragma solidity >=0.7.0 <0.9.0;\n\ncontract Voter {\n    struct OptionPos {\n        uint256 pos;\n        bool exists;\n    }\n\n    uint256[] public votes;\n    mapping(address => bool) hasVoted;\n    mapping(string => OptionPos) posOfOption;\n    string[] public options;\n    bool votingStarted;\n\n    function addOption(string memory option) public {\n        require(!votingStarted, \"Voting has already started\");\n        options.push(option);\n    }\n\n    function startVoting() public {\n        require(!votingStarted, \"Voting has already started\");\n        //votes.length = options.length;\n\n        for (uint256 i = 0; i < options.length; i++) {\n            OptionPos memory option = OptionPos(i, true);\n            posOfOption[options[i]] = option;\n        }\n        votingStarted = true;\n    }\n\n    function vote(uint256 option) public {\n        require(0 <= option && option < options.length, \"Invalid option\");\n        require(!hasVoted[msg.sender], \"Account has already voted\");\n\n        hasVoted[msg.sender] = true;\n        votes[option] = votes[option] + 1;\n    }\n\n    function vote(string memory option) public {\n        require(!hasVoted[msg.sender], \"Account has already voted\");\n        OptionPos memory optionPos = posOfOption[option];\n        require(optionPos.exists, \"Option does not exist\");\n\n        hasVoted[msg.sender] = true;\n        votes[optionPos.pos] = votes[optionPos.pos] + 1;\n    }\n\n    function getVotes() public view returns (uint256[] memory) {\n        return votes;\n    }\n}\n",
  "sourcePath": "C:/Users/San/Documents/Ethereum/truffle-demo/contracts/Voter.sol",
  "compiler": {
    "name": "solc",
    "version": "0.8.6+commit.11564f7e.Emscripten.clang"
  },
  "schemaVersion": "3.4.1",
  "updatedAt": "2021-07-20T12:32:46.141Z",
  "networkType": "ethereum",
  "devdoc": {
    "kind": "dev",
    "methods": {},
    "version": 1
  },
  "userdoc": {
    "kind": "user",
    "methods": {},
    "version": 1
  }
}